{
  "abi": [
    {
      "inputs": [
        {
          "internalType": "address",
          "name": "_governor",
          "type": "address"
        },
        {
          "internalType": "address",
          "name": "_mechanicsRegistry",
          "type": "address"
        },
        {
          "internalType": "address",
          "name": "_stealthRelayer",
          "type": "address"
        },
        {
          "internalType": "address",
          "name": "_v2Keeper",
          "type": "address"
        },
        {
          "internalType": "uint256",
          "name": "_workCooldown",
          "type": "uint256"
        },
        {
          "internalType": "address",
          "name": "_keep3r",
          "type": "address"
        },
        {
          "internalType": "address",
          "name": "_keep3rHelper",
          "type": "address"
        },
        {
          "internalType": "address",
          "name": "_bond",
          "type": "address"
        },
        {
          "internalType": "uint256",
          "name": "_minBond",
          "type": "uint256"
        },
        {
          "internalType": "uint256",
          "name": "_earned",
          "type": "uint256"
        },
        {
          "internalType": "uint256",
          "name": "_age",
          "type": "uint256"
        },
        {
          "internalType": "bool",
          "name": "_onlyEOA",
          "type": "bool"
        }
      ],
      "stateMutability": "nonpayable",
      "type": "constructor"
    },
    {
      "inputs": [],
      "name": "ExtraCreditUsed",
      "type": "error"
    },
    {
      "inputs": [],
      "name": "KeeperNotValid",
      "type": "error"
    },
    {
      "inputs": [],
      "name": "MaxMultiplier",
      "type": "error"
    },
    {
      "inputs": [],
      "name": "NoChangeInPause",
      "type": "error"
    },
    {
      "inputs": [],
      "name": "OnlyEOA",
      "type": "error"
    },
    {
      "inputs": [],
      "name": "OnlyGovernor",
      "type": "error"
    },
    {
      "inputs": [],
      "name": "OnlyGovernorOrMechanic",
      "type": "error"
    },
    {
      "inputs": [],
      "name": "OnlyPendingGovernor",
      "type": "error"
    },
    {
      "inputs": [],
      "name": "OnlyStealthRelayer",
      "type": "error"
    },
    {
      "inputs": [],
      "name": "Paused",
      "type": "error"
    },
    {
      "inputs": [],
      "name": "StrategiesPackedSet_Overflow",
      "type": "error"
    },
    {
      "inputs": [],
      "name": "StrategyAlreadyAdded",
      "type": "error"
    },
    {
      "inputs": [],
      "name": "StrategyNotAdded",
      "type": "error"
    },
    {
      "inputs": [],
      "name": "StrategyNotWorkable",
      "type": "error"
    },
    {
      "inputs": [],
      "name": "WrongLengths",
      "type": "error"
    },
    {
      "inputs": [],
      "name": "ZeroAddress",
      "type": "error"
    },
    {
      "inputs": [],
      "name": "ZeroCooldown",
      "type": "error"
    },
    {
      "anonymous": false,
      "inputs": [
        {
          "indexed": false,
          "internalType": "uint256",
          "name": "_delay",
          "type": "uint256"
        }
      ],
      "name": "CreditOptimisationWindowModified",
      "type": "event"
    },
    {
      "anonymous": false,
      "inputs": [
        {
          "indexed": false,
          "internalType": "address",
          "name": "_strategy",
          "type": "address"
        }
      ],
      "name": "ForceWorked",
      "type": "event"
    },
    {
      "anonymous": false,
      "inputs": [
        {
          "indexed": false,
          "internalType": "uint256",
          "name": "_gasBonus",
          "type": "uint256"
        }
      ],
      "name": "GasBonusSet",
      "type": "event"
    },
    {
      "anonymous": false,
      "inputs": [
        {
          "indexed": false,
          "internalType": "uint256",
          "name": "_initialGas",
          "type": "uint256"
        },
        {
          "indexed": false,
          "internalType": "uint256",
          "name": "_gasAfterWork",
          "type": "uint256"
        },
        {
          "indexed": false,
          "internalType": "uint256",
          "name": "_bonus",
          "type": "uint256"
        }
      ],
      "name": "GasMetered",
      "type": "event"
    },
    {
      "anonymous": false,
      "inputs": [
        {
          "indexed": false,
          "internalType": "uint256",
          "name": "_gasMultiplier",
          "type": "uint256"
        }
      ],
      "name": "GasMultiplierSet",
      "type": "event"
    },
    {
      "anonymous": false,
      "inputs": [
        {
          "indexed": false,
          "internalType": "address",
          "name": "_keep3rHelper",
          "type": "address"
        }
      ],
      "name": "Keep3rHelperSet",
      "type": "event"
    },
    {
      "anonymous": false,
      "inputs": [
        {
          "indexed": false,
          "internalType": "address",
          "name": "_bond",
          "type": "address"
        },
        {
          "indexed": false,
          "internalType": "uint256",
          "name": "_minBond",
          "type": "uint256"
        },
        {
          "indexed": false,
          "internalType": "uint256",
          "name": "_earned",
          "type": "uint256"
        },
        {
          "indexed": false,
          "internalType": "uint256",
          "name": "_age",
          "type": "uint256"
        }
      ],
      "name": "Keep3rRequirementsSet",
      "type": "event"
    },
    {
      "anonymous": false,
      "inputs": [
        {
          "indexed": false,
          "internalType": "address",
          "name": "_keep3r",
          "type": "address"
        }
      ],
      "name": "Keep3rSet",
      "type": "event"
    },
    {
      "anonymous": false,
      "inputs": [
        {
          "indexed": false,
          "internalType": "address",
          "name": "_strategy",
          "type": "address"
        }
      ],
      "name": "KeeperWorked",
      "type": "event"
    },
    {
      "anonymous": false,
      "inputs": [
        {
          "indexed": false,
          "internalType": "uint256",
          "name": "_maxMultiplier",
          "type": "uint256"
        }
      ],
      "name": "MaxMultiplierSet",
      "type": "event"
    },
    {
      "anonymous": false,
      "inputs": [
        {
          "indexed": false,
          "internalType": "bool",
          "name": "_onlyEOA",
          "type": "bool"
        }
      ],
      "name": "OnlyEOASet",
      "type": "event"
    },
    {
      "anonymous": false,
      "inputs": [
        {
          "indexed": false,
          "internalType": "bool",
          "name": "_paused",
          "type": "bool"
        }
      ],
      "name": "PauseSet",
      "type": "event"
    },
    {
      "anonymous": false,
      "inputs": [
        {
          "indexed": false,
          "internalType": "address",
          "name": "_newGovernor",
          "type": "address"
        }
      ],
      "name": "PendingGovernorAccepted",
      "type": "event"
    },
    {
      "anonymous": false,
      "inputs": [
        {
          "indexed": false,
          "internalType": "address",
          "name": "_governor",
          "type": "address"
        },
        {
          "indexed": false,
          "internalType": "address",
          "name": "_pendingGovernor",
          "type": "address"
        }
      ],
      "name": "PendingGovernorSet",
      "type": "event"
    },
    {
      "anonymous": false,
      "inputs": [
        {
          "indexed": false,
          "internalType": "address",
          "name": "_stealthRelayer",
          "type": "address"
        }
      ],
      "name": "StealthRelayerSet",
      "type": "event"
    },
    {
      "anonymous": false,
      "inputs": [
        {
          "indexed": false,
          "internalType": "address",
          "name": "_strategy",
          "type": "address"
        },
        {
          "indexed": false,
          "internalType": "uint256",
          "name": "_requiredAmount",
          "type": "uint256"
        }
      ],
      "name": "StrategyAdded",
      "type": "event"
    },
    {
      "anonymous": false,
      "inputs": [
        {
          "indexed": false,
          "internalType": "address",
          "name": "_strategy",
          "type": "address"
        },
        {
          "indexed": false,
          "internalType": "uint256",
          "name": "_requiredAmount",
          "type": "uint256"
        }
      ],
      "name": "StrategyModified",
      "type": "event"
    },
    {
      "anonymous": false,
      "inputs": [
        {
          "indexed": false,
          "internalType": "address",
          "name": "_strategy",
          "type": "address"
        }
      ],
      "name": "StrategyRemoved",
      "type": "event"
    },
    {
      "anonymous": false,
      "inputs": [
        {
          "indexed": false,
          "internalType": "uint256",
          "name": "_bonus",
          "type": "uint256"
        }
      ],
      "name": "SweepingBonusModified",
      "type": "event"
    },
    {
      "anonymous": false,
      "inputs": [
        {
          "indexed": true,
          "internalType": "address",
          "name": "_strategy",
          "type": "address"
        }
      ],
      "name": "SweepingOldStrategy",
      "type": "event"
    },
    {
      "anonymous": false,
      "inputs": [
        {
          "indexed": false,
          "internalType": "uint256",
          "name": "_sweepingPeriodStart",
          "type": "uint256"
        }
      ],
      "name": "SweepingStartModified",
      "type": "event"
    },
    {
      "anonymous": false,
      "inputs": [
        {
          "indexed": false,
          "internalType": "address",
          "name": "_v2Keeper",
          "type": "address"
        }
      ],
      "name": "V2KeeperSet",
      "type": "event"
    },
    {
      "anonymous": false,
      "inputs": [
        {
          "indexed": false,
          "internalType": "uint256",
          "name": "_newWorkCooldown",
          "type": "uint256"
        }
      ],
      "name": "WorkCooldownSet",
      "type": "event"
    },
    {
      "inputs": [],
      "name": "BASE",
      "outputs": [
        {
          "internalType": "uint32",
          "name": "",
          "type": "uint32"
        }
      ],
      "stateMutability": "view",
      "type": "function"
    },
    {
      "inputs": [],
      "name": "acceptPendingGovernor",
      "outputs": [],
      "stateMutability": "nonpayable",
      "type": "function"
    },
    {
      "inputs": [
        {
          "internalType": "address[]",
          "name": "_strategies",
          "type": "address[]"
        },
        {
          "internalType": "uint256[]",
          "name": "_requiredAmounts",
          "type": "uint256[]"
        }
      ],
      "name": "addStrategies",
      "outputs": [],
      "stateMutability": "nonpayable",
      "type": "function"
    },
    {
      "inputs": [
        {
          "internalType": "address",
          "name": "_strategy",
          "type": "address"
        },
        {
          "internalType": "uint256",
          "name": "_requiredAmount",
          "type": "uint256"
        }
      ],
      "name": "addStrategy",
      "outputs": [],
      "stateMutability": "nonpayable",
      "type": "function"
    },
    {
      "inputs": [
        {
          "internalType": "address",
          "name": "_strategy",
          "type": "address"
        }
      ],
      "name": "forceWork",
      "outputs": [],
      "stateMutability": "nonpayable",
      "type": "function"
    },
    {
      "inputs": [
        {
          "internalType": "address",
          "name": "_strategy",
          "type": "address"
        }
      ],
      "name": "forceWorkUnsafe",
      "outputs": [],
      "stateMutability": "nonpayable",
      "type": "function"
    },
    {
      "inputs": [],
      "name": "gasBonus",
      "outputs": [
        {
          "internalType": "uint256",
          "name": "",
          "type": "uint256"
        }
      ],
      "stateMutability": "view",
      "type": "function"
    },
    {
      "inputs": [],
      "name": "gasMultiplier",
      "outputs": [
        {
          "internalType": "uint256",
          "name": "",
          "type": "uint256"
        }
      ],
      "stateMutability": "view",
      "type": "function"
    },
    {
      "inputs": [],
      "name": "governor",
      "outputs": [
        {
          "internalType": "address",
          "name": "",
          "type": "address"
        }
      ],
      "stateMutability": "view",
      "type": "function"
    },
    {
      "inputs": [
        {
          "internalType": "address",
          "name": "_mechanic",
          "type": "address"
        }
      ],
      "name": "isMechanic",
      "outputs": [
        {
          "internalType": "bool",
          "name": "_isMechanic",
          "type": "bool"
        }
      ],
      "stateMutability": "view",
      "type": "function"
    },
    {
      "inputs": [],
      "name": "keep3r",
      "outputs": [
        {
          "internalType": "address",
          "name": "",
          "type": "address"
        }
      ],
      "stateMutability": "view",
      "type": "function"
    },
    {
      "inputs": [],
      "name": "keep3rHelper",
      "outputs": [
        {
          "internalType": "address",
          "name": "",
          "type": "address"
        }
      ],
      "stateMutability": "view",
      "type": "function"
    },
    {
      "inputs": [
        {
          "internalType": "address",
          "name": "_strategy",
          "type": "address"
        }
      ],
      "name": "lastWorkAt",
      "outputs": [
        {
          "internalType": "uint256",
          "name": "_lastWorkAt",
          "type": "uint256"
        }
      ],
      "stateMutability": "view",
      "type": "function"
    },
    {
      "inputs": [],
      "name": "maxMultiplier",
      "outputs": [
        {
          "internalType": "uint256",
          "name": "",
          "type": "uint256"
        }
      ],
      "stateMutability": "view",
      "type": "function"
    },
    {
      "inputs": [],
      "name": "mechanicsRegistry",
      "outputs": [
        {
          "internalType": "address",
          "name": "_mechanicRegistry",
          "type": "address"
        }
      ],
      "stateMutability": "view",
      "type": "function"
    },
    {
      "inputs": [],
      "name": "onlyEOA",
      "outputs": [
        {
          "internalType": "bool",
          "name": "",
          "type": "bool"
        }
      ],
      "stateMutability": "view",
      "type": "function"
    },
    {
      "inputs": [],
      "name": "paused",
      "outputs": [
        {
          "internalType": "bool",
          "name": "",
          "type": "bool"
        }
      ],
      "stateMutability": "view",
      "type": "function"
    },
    {
      "inputs": [],
      "name": "pendingGovernor",
      "outputs": [
        {
          "internalType": "address",
          "name": "",
          "type": "address"
        }
      ],
      "stateMutability": "view",
      "type": "function"
    },
    {
      "inputs": [
        {
          "internalType": "address",
          "name": "_strategy",
          "type": "address"
        }
      ],
      "name": "removeStrategy",
      "outputs": [],
      "stateMutability": "nonpayable",
      "type": "function"
    },
    {
      "inputs": [],
      "name": "requiredAge",
      "outputs": [
        {
          "internalType": "uint256",
          "name": "",
          "type": "uint256"
        }
      ],
      "stateMutability": "view",
      "type": "function"
    },
    {
      "inputs": [
        {
          "internalType": "address",
          "name": "_strategy",
          "type": "address"
        }
      ],
      "name": "requiredAmount",
      "outputs": [
        {
          "internalType": "uint256",
          "name": "_requiredAmount",
          "type": "uint256"
        }
      ],
      "stateMutability": "view",
      "type": "function"
    },
    {
      "inputs": [],
      "name": "requiredBond",
      "outputs": [
        {
          "internalType": "address",
          "name": "",
          "type": "address"
        }
      ],
      "stateMutability": "view",
      "type": "function"
    },
    {
      "inputs": [],
      "name": "requiredEarnings",
      "outputs": [
        {
          "internalType": "uint256",
          "name": "",
          "type": "uint256"
        }
      ],
      "stateMutability": "view",
      "type": "function"
    },
    {
      "inputs": [],
      "name": "requiredMinBond",
      "outputs": [
        {
          "internalType": "uint256",
          "name": "",
          "type": "uint256"
        }
      ],
      "stateMutability": "view",
      "type": "function"
    },
    {
      "inputs": [
        {
          "internalType": "uint64",
          "name": "_window",
          "type": "uint64"
        }
      ],
      "name": "setCreditWindow",
      "outputs": [],
      "stateMutability": "nonpayable",
      "type": "function"
    },
    {
      "inputs": [
        {
          "internalType": "uint256",
          "name": "_gasBonus",
          "type": "uint256"
        }
      ],
      "name": "setGasBonus",
      "outputs": [],
      "stateMutability": "nonpayable",
      "type": "function"
    },
    {
      "inputs": [
        {
          "internalType": "uint256",
          "name": "_gasMultiplier",
          "type": "uint256"
        }
      ],
      "name": "setGasMultiplier",
      "outputs": [],
      "stateMutability": "nonpayable",
      "type": "function"
    },
    {
      "inputs": [
        {
          "internalType": "address",
          "name": "_keep3r",
          "type": "address"
        }
      ],
      "name": "setKeep3r",
      "outputs": [],
      "stateMutability": "nonpayable",
      "type": "function"
    },
    {
      "inputs": [
        {
          "internalType": "address",
          "name": "_keep3rHelper",
          "type": "address"
        }
      ],
      "name": "setKeep3rHelper",
      "outputs": [],
      "stateMutability": "nonpayable",
      "type": "function"
    },
    {
      "inputs": [
        {
          "internalType": "address",
          "name": "_bond",
          "type": "address"
        },
        {
          "internalType": "uint256",
          "name": "_minBond",
          "type": "uint256"
        },
        {
          "internalType": "uint256",
          "name": "_earned",
          "type": "uint256"
        },
        {
          "internalType": "uint256",
          "name": "_age",
          "type": "uint256"
        }
      ],
      "name": "setKeep3rRequirements",
      "outputs": [],
      "stateMutability": "nonpayable",
      "type": "function"
    },
    {
      "inputs": [
        {
          "internalType": "uint256",
          "name": "_maxMultiplier",
          "type": "uint256"
        }
      ],
      "name": "setMaxMultiplier",
      "outputs": [],
      "stateMutability": "nonpayable",
      "type": "function"
    },
    {
      "inputs": [
        {
          "internalType": "address",
          "name": "_mechanicsRegistry",
          "type": "address"
        }
      ],
      "name": "setMechanicsRegistry",
      "outputs": [],
      "stateMutability": "nonpayable",
      "type": "function"
    },
    {
      "inputs": [
        {
          "internalType": "bool",
          "name": "_onlyEOA",
          "type": "bool"
        }
      ],
      "name": "setOnlyEOA",
      "outputs": [],
      "stateMutability": "nonpayable",
      "type": "function"
    },
    {
      "inputs": [
        {
          "internalType": "bool",
          "name": "_paused",
          "type": "bool"
        }
      ],
      "name": "setPause",
      "outputs": [],
      "stateMutability": "nonpayable",
      "type": "function"
    },
    {
      "inputs": [
        {
          "internalType": "address",
          "name": "_pendingGovernor",
          "type": "address"
        }
      ],
      "name": "setPendingGovernor",
      "outputs": [],
      "stateMutability": "nonpayable",
      "type": "function"
    },
    {
      "inputs": [
        {
          "internalType": "address",
          "name": "_stealthRelayer",
          "type": "address"
        }
      ],
      "name": "setStealthRelayer",
      "outputs": [],
      "stateMutability": "nonpayable",
      "type": "function"
    },
    {
      "inputs": [
        {
          "internalType": "uint64",
          "name": "_sweepGasBonus",
          "type": "uint64"
        }
      ],
      "name": "setSweepingBonus",
      "outputs": [],
      "stateMutability": "nonpayable",
      "type": "function"
    },
    {
      "inputs": [
        {
          "internalType": "uint64",
          "name": "_sweepingPeriodStart",
          "type": "uint64"
        }
      ],
      "name": "setSweepingStart",
      "outputs": [],
      "stateMutability": "nonpayable",
      "type": "function"
    },
    {
      "inputs": [
        {
          "internalType": "address",
          "name": "_v2Keeper",
          "type": "address"
        }
      ],
      "name": "setV2Keeper",
      "outputs": [],
      "stateMutability": "nonpayable",
      "type": "function"
    },
    {
      "inputs": [
        {
          "internalType": "uint256",
          "name": "_workCooldown",
          "type": "uint256"
        }
      ],
      "name": "setWorkCooldown",
      "outputs": [],
      "stateMutability": "nonpayable",
      "type": "function"
    },
    {
      "inputs": [],
      "name": "stealthRelayer",
      "outputs": [
        {
          "internalType": "address",
          "name": "",
          "type": "address"
        }
      ],
      "stateMutability": "view",
      "type": "function"
    },
    {
      "inputs": [],
      "name": "strategies",
      "outputs": [
        {
          "internalType": "address[]",
          "name": "_strategies",
          "type": "address[]"
        }
      ],
      "stateMutability": "view",
      "type": "function"
    },
    {
      "inputs": [],
      "name": "sweepingParams",
      "outputs": [
        {
          "internalType": "uint64",
          "name": "sweepingPeriodStartAt",
          "type": "uint64"
        },
        {
          "internalType": "uint64",
          "name": "creditOptimisationWindow",
          "type": "uint64"
        },
        {
          "internalType": "uint64",
          "name": "sweepGasBonus",
          "type": "uint64"
        }
      ],
      "stateMutability": "view",
      "type": "function"
    },
    {
      "inputs": [
        {
          "internalType": "address",
          "name": "_strategy",
          "type": "address"
        },
        {
          "internalType": "uint256",
          "name": "_requiredAmount",
          "type": "uint256"
        }
      ],
      "name": "updateRequiredAmount",
      "outputs": [],
      "stateMutability": "nonpayable",
      "type": "function"
    },
    {
      "inputs": [
        {
          "internalType": "address[]",
          "name": "_strategies",
          "type": "address[]"
        },
        {
          "internalType": "uint256[]",
          "name": "_requiredAmounts",
          "type": "uint256[]"
        }
      ],
      "name": "updateRequiredAmounts",
      "outputs": [],
      "stateMutability": "nonpayable",
      "type": "function"
    },
    {
      "inputs": [],
      "name": "v2Keeper",
      "outputs": [
        {
          "internalType": "contract IV2Keeper",
          "name": "",
          "type": "address"
        }
      ],
      "stateMutability": "view",
      "type": "function"
    },
    {
      "inputs": [
        {
          "internalType": "address",
          "name": "_strategy",
          "type": "address"
        }
      ],
      "name": "work",
      "outputs": [],
      "stateMutability": "nonpayable",
      "type": "function"
    },
    {
      "inputs": [],
      "name": "workCooldown",
      "outputs": [
        {
          "internalType": "uint256",
          "name": "",
          "type": "uint256"
        }
      ],
      "stateMutability": "view",
      "type": "function"
    },
    {
      "inputs": [
        {
          "internalType": "address",
          "name": "_strategy",
          "type": "address"
        }
      ],
      "name": "workable",
      "outputs": [
        {
          "internalType": "bool",
          "name": "_isWorkable",
          "type": "bool"
        }
      ],
      "stateMutability": "view",
      "type": "function"
    }
  ],
  "bytecode": {
    "object": "0x60806040526007805474eb02addcfd8b773a5ffa6b9d1fe99c566f8c44cc00610100600160a81b0319909116179055600880546001600160a01b031990811673edde080e28eb53532bd1804de51bd9cd5cadf0d41790915562018e70600955612710600a55613a98600b55600c8054909116731ceb5cb57c4d4e2b2433641b95dd330a33185a441790556802b5e3af16b1880000600d55348015620000a357600080fd5b5060405162002a8e38038062002a8e833981016040819052620000c691620004c0565b600080546001600160a01b0319166001600160a01b038d161790558b898c8a81846001600160a01b0381166200010f5760405163d92e233d60e01b815260040160405180910390fd5b600180546001600160a01b03199081166001600160a01b039384161790915560038054909116918616919091179055508015620001515762000151816200021e565b5050505062000166876200025a60201b60201c565b6200017186620002b1565b6200017c8a62000300565b6200018a8585858562000357565b6200019581620003d1565b620001a362022f6062000413565b620001ce6103e8600a54610352620001bc919062000599565b620001c89190620005c7565b62000449565b505060118054426001600160401b03166001600160801b031990911617690e10000000000000000017600160801b600160c01b031916610e2960821b17905550620005ea98505050505050505050565b60068190556040518181527f9fe060036cc32af473cb55404025a8ef2cc9a08c36fa10a7a1ccd18cf613f1ed906020015b60405180910390a150565b60078054610100600160a81b0319166101006001600160a01b038416908102919091179091556040519081527f0fec338132ef1fa68cd11242357e5e5e5af67dfd0c957b53ef411bca535817ef906020016200024f565b600880546001600160a01b0319166001600160a01b0383169081179091556040519081527f77e14ebc8982ca2b21d8410b77a6ca8a857864dfab5d337f154fbacea73c1191906020016200024f565b60108054610100600160a81b0319166101006001600160a01b038416908102919091179091556040519081527f4803a65acc131d65526972ad19dbfa7490ed1f24f6ece0c71f4898d86a01b69b906020016200024f565b600c80546001600160a01b0319166001600160a01b038616908117909155600d849055600e839055600f82905560408051918252602082018590528101839052606081018290527fadc260414d0381ec9727c6f819aa0ebe789ad81016c176765f40d3bc301e5d6b9060800160405180910390a150505050565b6010805460ff19168215159081179091556040519081527fa9bf0ee725a8887f07a03c36e33aa100bb0218d44b9fff855be8504c480ab99b906020016200024f565b60098190556040518181527f6c434ba0e7a3588c2330d8f479f247d9269f069a8d630dbb2cb60a7382a487f0906020016200024f565b600b548111156200046d5760405163cd9ba70160e01b815260040160405180910390fd5b600a8190556040518181527f2985ceccbff6f8695faca980a17eb9a590d2f080d024f944d3c7743ba038c399906020016200024f565b80516001600160a01b0381168114620004bb57600080fd5b919050565b6000806000806000806000806000806000806101808d8f031215620004e457600080fd5b620004ef8d620004a3565b9b50620004ff60208e01620004a3565b9a506200050f60408e01620004a3565b99506200051f60608e01620004a3565b985060808d015197506200053660a08e01620004a3565b96506200054660c08e01620004a3565b95506200055660e08e01620004a3565b94506101008d015193506101208d015192506101408d015191506101608d015180151581146200058557600080fd5b809150509295989b509295989b509295989b565b6000816000190483118215151615620005c257634e487b7160e01b600052601160045260246000fd5b500290565b600082620005e557634e487b7160e01b600052601260045260246000fd5b500490565b61249480620005fa6000396000f3fe608060405234801561001057600080fd5b50600436106102bb5760003560e01c806365834acc11610182578063c9411e22116100e9578063ec342ad0116100a2578063f235757f1161007c578063f235757f14610654578063f7ac5fc614610667578063fb2a410a1461067a578063fbea57091461068757600080fd5b8063ec342ad014610610578063ef47da6d1461062e578063f11a1d1a1461064157600080fd5b8063c9411e22146105b0578063d9f9027f146105c3578063dd7ba420146105d8578063e06a7cb9146105eb578063e3056a34146105f4578063ea3c2b9c1461060757600080fd5b80638c9341f11161013b5780638c9341f11461053e57806390f296431461055157806392b3b265146105645780639f47130314610577578063b9a52e281461058a578063bedb86fb1461059d57600080fd5b806365834acc146104e05780636b1b6e3e146104f357806372da828a146104fc57806373da47c81461050f57806374c2ca8314610518578063780b5c231461052b57600080fd5b806328584aa7116102265780634cc18e57116101df5780634cc18e57146104275780635905b4071461043a5780635c975abb1461044d57806362ba54a91461046a578063634c7bb514610473578063645942711461048b57600080fd5b806328584aa7146103b557806328cf7e9f146103c85780632c252d28146103db5780632ddfde34146103ee57806336df7ea5146104015780633ff8bbf61461041457600080fd5b806314f29a1d1161027857806314f29a1d1461034857806316ea58da1461035b578063175188e814610364578063259428a01461037757806325fc3b221461038f57806326e6cd26146103a257600080fd5b806301526a43146102c05780630187aea0146102d55780630c340a24146102f1578063102628031461031c5780631078f3881461032f57806313f6986d14610340575b600080fd5b6102d36102ce36600461211e565b61069a565b005b6102de600b5481565b6040519081526020015b60405180910390f35b600154610304906001600160a01b031681565b6040516001600160a01b0390911681526020016102e8565b6102de61032a36600461214c565b6106d1565b6000546001600160a01b0316610304565b6102d36106f5565b6102d361035636600461211e565b61072a565b6102de60095481565b6102d361037236600461214c565b61075e565b6010546103049061010090046001600160a01b031681565b6102d361039d3660046121b5565b610770565b6102d36103b036600461214c565b610805565b6102de6103c336600461214c565b610839565b6102d36103d6366004612221565b61084f565b6102d36103e9366004612221565b6108af565b6102d36103fc366004612221565b610914565b6102d361040f36600461214c565b61097e565b600c54610304906001600160a01b031681565b6102d361043536600461214c565b610e12565b6102d361044836600461224b565b610e46565b60075461045a9060ff1681565b60405190151581526020016102e8565b6102de600e5481565b6007546103049061010090046001600160a01b031681565b6011546104b59067ffffffffffffffff80821691600160401b8104821691600160801b9091041683565b6040805167ffffffffffffffff948516815292841660208401529216918101919091526060016102e8565b61045a6104ee36600461214c565b610e83565b6102de600f5481565b6102d361050a36600461214c565b610ef2565b6102de600d5481565b6102d361052636600461211e565b610f26565b6102d3610539366004612294565b610f38565b6102d361054c36600461214c565b610f6c565b6102d361055f36600461211e565b610fa0565b600354610304906001600160a01b031681565b61045a61058536600461214c565b610fd4565b6102d36105983660046122b1565b610fdf565b6102d36105ab366004612294565b610ff6565b6102d36105be3660046122b1565b61102a565b6105cb61103d565b6040516102e891906122dd565b6102d36105e636600461214c565b6110ee565b6102de60065481565b600254610304906001600160a01b031681565b6102de600a5481565b61061961271081565b60405163ffffffff90911681526020016102e8565b6102d361063c36600461214c565b6111ab565b600854610304906001600160a01b031681565b6102d361066236600461214c565b6111f4565b6102d361067536600461214c565b611228565b60105461045a9060ff1681565b6102d36106953660046121b5565b61123a565b6001546001600160a01b031633146106c55760405163070545c960e51b815260040160405180910390fd5b6106ce816112c8565b50565b60006106ef6106e16004846112fd565b60a01c65ffffffffffff1690565b92915050565b6002546001600160a01b0316331461072057604051639ba0305d60e01b815260040160405180910390fd5b610728611371565b565b6001546001600160a01b031633146107555760405163070545c960e51b815260040160405180910390fd5b6106ce816113cf565b61076733611427565b6106ce81611469565b61077933611427565b828114610799576040516381e4d28d60e01b815260040160405180910390fd5b60005b838110156107fe576107ec8585838181106107b9576107b961232a565b90506020020160208101906107ce919061214c565b8484848181106107e0576107e061232a565b905060200201356114d6565b806107f681612356565b91505061079c565b5050505050565b6001546001600160a01b031633146108305760405163070545c960e51b815260040160405180910390fd5b6106ce81611553565b60006106ef6108496004846112fd565b60d01c90565b61085833611427565b6011805467ffffffffffffffff191667ffffffffffffffff83169081179091556040519081527f6eea75b4e494842dedbbdbc13f497db10c3d2ee9e9af1a71e8e94cc6e6e91a3b906020015b60405180910390a150565b6108b833611427565b6011805467ffffffffffffffff60801b1916600160801b67ffffffffffffffff8416908102919091179091556040519081527f4fc08726de645cdd3f5b72078a83c2846a139e5974227f63493916cc47fe942a906020016108a4565b61091d33611427565b601180546fffffffffffffffff00000000000000001916600160401b67ffffffffffffffff8416908102919091179091556040519081527fafd72e5a6a24767999db2ecb4da14de7f5d3f06783983aecf5fb7c4ed387eb38906020016108a4565b60075460ff16156109a2576040516313d0ff5960e31b815260040160405180910390fd5b60006109ac6115a1565b60105490915061010090046001600160a01b031633146109df576040516332ca9ab360e11b815260040160405180910390fd5b6000601060019054906101000a90046001600160a01b03166001600160a01b031663fc9c8d396040518163ffffffff1660e01b8152600401602060405180830381865afa158015610a34573d6000803e3d6000fd5b505050506040513d601f19601f82011682018060405250810190610a58919061236f565b9050610a63816115c0565b6000610a6e846115dd565b610a8b576040516398ae0b2160e01b815260040160405180910390fd5b836001600160a01b031663ed882c2b610aa386611644565b6040518263ffffffff1660e01b8152600401610ac191815260200190565b602060405180830381865afa158015610ade573d6000803e3d6000fd5b505050506040513d601f19601f82011682018060405250810190610b02919061238c565b610b3557610b0f84611679565b15610b1c57506001610b35565b6040516398ae0b2160e01b815260040160405180910390fd5b610b4160048542611866565b610b4a84611923565b6040516001600160a01b03851681527fac848b4596fbd35b139e8ee158748a1c8091becf3e830c628b4a79ad869d17029060200160405180910390a16000610b906115a1565b6008549091506000906001600160a01b0316632248e82d858515610bea57601154600954600160801b90910467ffffffffffffffff1690610bd1878b6123a9565b610bdb91906123c0565b610be591906123c0565b610c01565b600954610bf7868a6123a9565b610c0191906123c0565b6040516001600160e01b031960e085901b1681526001600160a01b0390921660048301526024820152604401602060405180830381865afa158015610c4a573d6000803e3d6000fd5b505050506040513d601f19601f82011682018060405250810190610c6e91906123d8565b600a5490915061271090610c8290836123f1565b610c8c9190612410565b6007546040516308a336b960e11b81526001600160a01b03878116600483015260248201849052929350610100909104909116906311466d7290604401600060405180830381600087803b158015610ce357600080fd5b505af1158015610cf7573d6000803e3d6000fd5b5050600954604080518981526020810187905280820192909252517f5b3acbf5cbe55940e1bd9235bb985ccca97e9028d7489290f08e6504e76b88d39350908190036060019150a182600103610e0a576040516001600160a01b038716907fb8598352244e9f6c9eaffc2f9cc4f10d72049d383bd0a5d4e2b2152d67ffd27790600090a260075460405163a676f9ff60e01b8152306004820152429161010090046001600160a01b03169063a676f9ff90602401602060405180830381865afa158015610dc8573d6000803e3d6000fd5b505050506040513d601f19601f82011682018060405250810190610dec91906123d8565b03610e0a5760405163627a48b960e01b815260040160405180910390fd5b505050505050565b6001546001600160a01b03163314610e3d5760405163070545c960e51b815260040160405180910390fd5b6106ce8161197e565b6001546001600160a01b03163314610e715760405163070545c960e51b815260040160405180910390fd5b610e7d848484846119d4565b50505050565b60008054604051631960d2b360e21b81526001600160a01b038481166004830152909116906365834acc90602401602060405180830381865afa158015610ece573d6000803e3d6000fd5b505050506040513d601f19601f820116820180604052508101906106ef919061238c565b6001546001600160a01b03163314610f1d5760405163070545c960e51b815260040160405180910390fd5b6106ce81611a4e565b610f2f33611427565b6106ce81611a9c565b6001546001600160a01b03163314610f635760405163070545c960e51b815260040160405180910390fd5b6106ce81611ad1565b6001546001600160a01b03163314610f975760405163070545c960e51b815260040160405180910390fd5b6106ce81611b12565b6001546001600160a01b03163314610fcb5760405163070545c960e51b815260040160405180910390fd5b6106ce81611b68565b60006106ef82611b9d565b610fe833611427565b610ff28282611c3a565b5050565b6001546001600160a01b031633146110215760405163070545c960e51b815260040160405180910390fd5b6106ce81611cad565b61103333611427565b610ff282826114d6565b6060600061104a60045490565b90508067ffffffffffffffff81111561106557611065612432565b60405190808252806020026020018201604052801561108e578160200160208202803683370190505b50915060005b818110156110e9576110ad6110aa600483611d19565b90565b8382815181106110bf576110bf61232a565b6001600160a01b0390921660209283029190910190910152806110e181612356565b915050611094565b505090565b60105461010090046001600160a01b0316331461111e576040516332ca9ab360e11b815260040160405180910390fd5b6000601060019054906101000a90046001600160a01b03166001600160a01b031663fc9c8d396040518163ffffffff1660e01b8152600401602060405180830381865afa158015611173573d6000803e3d6000fd5b505050506040513d601f19601f82011682018060405250810190611197919061236f565b90506111a281611427565b610ff282611d30565b6001546001600160a01b031633146111d65760405163070545c960e51b815260040160405180910390fd5b600080546001600160a01b0319166001600160a01b03831617905550565b6001546001600160a01b0316331461121f5760405163070545c960e51b815260040160405180910390fd5b6106ce81611d72565b61123133611427565b6106ce81611d30565b61124333611427565b828114611263576040516381e4d28d60e01b815260040160405180910390fd5b60005b838110156107fe576112b68585838181106112835761128361232a565b9050602002016020810190611298919061214c565b8484848181106112aa576112aa61232a565b90506020020135611c3a565b806112c081612356565b915050611266565b600b8190556040518181527fad852bc3e1d8ed93d9b2d9290bdb1d945c12994fd7b826f5ff91ec56245aefda906020016108a4565b6001600160a01b03811660009081526001830160205260408120548103611326575060006106ef565b6001600160a01b03821660009081526001808501602052604090912054849161134e916123a9565b8154811061135e5761135e61232a565b9060005260206000200154905092915050565b60028054600180546001600160a01b0383166001600160a01b031991821681179092559091169091556040519081527f5d5d6e01b731c3e68060f7fe13156f6197d4aeffc2d6f498e34c717ae616b7349060200160405180910390a1565b600b548111156113f25760405163cd9ba70160e01b815260040160405180910390fd5b600a8190556040518181527f2985ceccbff6f8695faca980a17eb9a590d2f080d024f944d3c7743ba038c399906020016108a4565b6001546001600160a01b0382811691161480159061144b575061144981610e83565b155b156106ce576040516306a22f2960e01b815260040160405180910390fd5b611474600482611df5565b61149157604051638716f5eb60e01b815260040160405180910390fd5b61149c600482611e16565b506040516001600160a01b03821681527f09a1db4b80c32706328728508c941a6b954f31eb5affd32f236c1fd405f8fea4906020016108a4565b6114e1600483611df5565b156114ff5760405163165e236760e01b815260040160405180910390fd5b61150b60048383611f2f565b50604080516001600160a01b0384168152602081018390527f2f564a83158ad1831793ad3e69257b52f39ece5d49cb0d8746708ecb9ef964da91015b60405180910390a15050565b600380546001600160a01b0319166001600160a01b0383169081179091556040519081527fd849a95a2e1f5c1d13dbda107dffe1c85db06337080c299a8474c4d0a4fa5ca5906020016108a4565b6000603f5a6115b19060406123f1565b6115bb9190612410565b905090565b60105460ff16156115d4576115d481611fb0565b6106ce81611fd9565b60006115ea600483611df5565b61160757604051638716f5eb60e01b815260040160405180910390fd5b600654158061162f57506006546116226106e16004856112fd565b61162c91906123c0565b42115b1561163c57506001919050565b506000919050565b6000806116556108496004856112fd565b9050806000036116685750600092915050565b61167248826123f1565b9392505050565b60075460405163a676f9ff60e01b815230600482015260009182916101009091046001600160a01b03169063a676f9ff90602401602060405180830381865afa1580156116ca573d6000803e3d6000fd5b505050506040513d601f19601f820116820180604052508101906116ee91906123d8565b9050806000036117015750600092915050565b6000600760019054906101000a90046001600160a01b03166001600160a01b031663768b5d906040518163ffffffff1660e01b8152600401602060405180830381865afa158015611756573d6000803e3d6000fd5b505050506040513d601f19601f8201168201806040525081019061177a91906123d8565b905060008161178984426123a9565b6117939190612410565b61179d90836123f1565b6117a790846123c0565b905060006117b583836123c0565b6011549091506117d690600160401b900467ffffffffffffffff16826123a9565b4210156117e95750600095945050505050565b6000836117f642846123a9565b60115461180d919067ffffffffffffffff166123f1565b6118179190612410565b8461182242856123a9565b61182c90866123f1565b6118369190612410565b61184090856123a9565b61184a91906123c0565b905061185a6106e16004896112fd565b11159695505050505050565b65ffffffffffff811061188c57604051633b8df9e960e01b815260040160405180910390fd5b6001600160a01b038216600090815260018085016020526040822054919085906118b690846123a9565b815481106118c6576118c661232a565b600091825260209091200154905065ffffffffffff60a01b19811665ffffffffffff60a01b60a085901b161780866118ff6001866123a9565b8154811061190f5761190f61232a565b600091825260209091200155505050505050565b60035460405163072e008f60e11b81526001600160a01b03838116600483015290911690630e5c011e90602401600060405180830381600087803b15801561196a57600080fd5b505af11580156107fe573d6000803e3d6000fd5b60078054610100600160a81b0319166101006001600160a01b038416908102919091179091556040519081527f0fec338132ef1fa68cd11242357e5e5e5af67dfd0c957b53ef411bca535817ef906020016108a4565b600c80546001600160a01b0319166001600160a01b038616908117909155600d849055600e839055600f82905560408051918252602082018590528101839052606081018290527fadc260414d0381ec9727c6f819aa0ebe789ad81016c176765f40d3bc301e5d6b9060800160405180910390a150505050565b600880546001600160a01b0319166001600160a01b0383169081179091556040519081527f77e14ebc8982ca2b21d8410b77a6ca8a857864dfab5d337f154fbacea73c1191906020016108a4565b60068190556040518181527f9fe060036cc32af473cb55404025a8ef2cc9a08c36fa10a7a1ccd18cf613f1ed906020016108a4565b6010805460ff19168215159081179091556040519081527fa9bf0ee725a8887f07a03c36e33aa100bb0218d44b9fff855be8504c480ab99b906020016108a4565b60108054610100600160a81b0319166101006001600160a01b038416908102919091179091556040519081527f4803a65acc131d65526972ad19dbfa7490ed1f24f6ece0c71f4898d86a01b69b906020016108a4565b60098190556040518181527f6c434ba0e7a3588c2330d8f479f247d9269f069a8d630dbb2cb60a7382a487f0906020016108a4565b6000611ba8826115dd565b611bb457506000919050565b816001600160a01b031663ed882c2b611bcc84611644565b6040518263ffffffff1660e01b8152600401611bea91815260200190565b602060405180830381865afa158015611c07573d6000803e3d6000fd5b505050506040513d601f19601f82011682018060405250810190611c2b919061238c565b8061162f575061162f82611679565b611c45600483611df5565b611c6257604051638716f5eb60e01b815260040160405180910390fd5b611c6e60048383612093565b604080516001600160a01b0384168152602081018390527fe4471c38177bd412e0358beccddbe74bad9465520f4f24a76c013bd404b0b0de9101611547565b60075481151560ff909116151503611cd8576040516337fe120d60e21b815260040160405180910390fd5b6007805460ff19168215159081179091556040519081527f878ac8a2ca79520471f8f3c8494fa802c03ce3bf034252aad7f22318984fdbdb906020016108a4565b600082600001828154811061135e5761135e61232a565b611d3981611923565b6040516001600160a01b03821681527fee8d688761ac1d0fda49e2ac999f0e46b3beaf16857a8e8905aeab2987dc8d38906020016108a4565b6001600160a01b038116611d995760405163d92e233d60e01b815260040160405180910390fd5b600280546001600160a01b0319166001600160a01b038381169182179092556001546040805191909316815260208101919091527f6353ec38ac394f8be94bfafcdd3580d356470599059eaeebedc3207e1cc03dec91016108a4565b6001600160a01b031660009081526001919091016020526040902054151590565b6001600160a01b03811660009081526001830160205260408120548015611f25576000611e446001836123a9565b8554909150600090611e58906001906123a9565b9050818114611ec7576000866000018281548110611e7857611e7861232a565b9060005260206000200154905080876000018481548110611e9b57611e9b61232a565b60009182526020808320909101929092556001600160a01b039092168252600188019052604090208390555b8554869080611ed857611ed8612448565b60019003818190600052602060002001600090559055856001016000866001600160a01b03166001600160a01b0316815260200190815260200160002060009055600193505050506106ef565b60009150506106ef565b600065ffffffffffff8210611f5757604051633b8df9e960e01b815260040160405180910390fd5b611f618484611df5565b611fa65750825460018181018555600085815260208082206001600160a01b03871660d087901b81179190950155865493825282870190526040902091909155611672565b5060009392505050565b6001600160a01b03811632146106ce57604051639f8129d160e01b815260040160405180910390fd5b600754600c54600d54600e54600f54604051637cea367960e11b81526001600160a01b0387811660048301529485166024820152604481019390935260648301919091526084820152610100909204169063f9d46cf29060a4016020604051808303816000875af1158015612052573d6000803e3d6000fd5b505050506040513d601f19601f82011682018060405250810190612076919061238c565b6106ce57604051636959565560e11b815260040160405180910390fd5b65ffffffffffff81106120b957604051633b8df9e960e01b815260040160405180910390fd5b6001600160a01b038216600090815260018085016020526040822054919085906120e390846123a9565b815481106120f3576120f361232a565b60009182526020909120015490506001600160d01b03811660d084901b1780866118ff6001866123a9565b60006020828403121561213057600080fd5b5035919050565b6001600160a01b03811681146106ce57600080fd5b60006020828403121561215e57600080fd5b813561167281612137565b60008083601f84011261217b57600080fd5b50813567ffffffffffffffff81111561219357600080fd5b6020830191508360208260051b85010111156121ae57600080fd5b9250929050565b600080600080604085870312156121cb57600080fd5b843567ffffffffffffffff808211156121e357600080fd5b6121ef88838901612169565b9096509450602087013591508082111561220857600080fd5b5061221587828801612169565b95989497509550505050565b60006020828403121561223357600080fd5b813567ffffffffffffffff8116811461167257600080fd5b6000806000806080858703121561226157600080fd5b843561226c81612137565b966020860135965060408601359560600135945092505050565b80151581146106ce57600080fd5b6000602082840312156122a657600080fd5b813561167281612286565b600080604083850312156122c457600080fd5b82356122cf81612137565b946020939093013593505050565b6020808252825182820181905260009190848201906040850190845b8181101561231e5783516001600160a01b0316835292840192918401916001016122f9565b50909695505050505050565b634e487b7160e01b600052603260045260246000fd5b634e487b7160e01b600052601160045260246000fd5b60006001820161236857612368612340565b5060010190565b60006020828403121561238157600080fd5b815161167281612137565b60006020828403121561239e57600080fd5b815161167281612286565b6000828210156123bb576123bb612340565b500390565b600082198211156123d3576123d3612340565b500190565b6000602082840312156123ea57600080fd5b5051919050565b600081600019048311821515161561240b5761240b612340565b500290565b60008261242d57634e487b7160e01b600052601260045260246000fd5b500490565b634e487b7160e01b600052604160045260246000fd5b634e487b7160e01b600052603160045260246000fdfea26469706673582212200c2ef8974dab190eac61882d160727ca3abc3fdf249fd531dc64046a55d710f264736f6c634300080f0033",
    "linkReferences": {}
  },
  "methodIdentifiers": {
    "BASE()": "ec342ad0",
    "acceptPendingGovernor()": "13f6986d",
    "addStrategies(address[],uint256[])": "25fc3b22",
    "addStrategy(address,uint256)": "c9411e22",
    "forceWork(address)": "dd7ba420",
    "forceWorkUnsafe(address)": "f7ac5fc6",
    "gasBonus()": "16ea58da",
    "gasMultiplier()": "ea3c2b9c",
    "governor()": "0c340a24",
    "isMechanic(address)": "65834acc",
    "keep3r()": "634c7bb5",
    "keep3rHelper()": "f11a1d1a",
    "lastWorkAt(address)": "10262803",
    "maxMultiplier()": "0187aea0",
    "mechanicsRegistry()": "1078f388",
    "onlyEOA()": "fb2a410a",
    "paused()": "5c975abb",
    "pendingGovernor()": "e3056a34",
    "removeStrategy(address)": "175188e8",
    "requiredAge()": "6b1b6e3e",
    "requiredAmount(address)": "28584aa7",
    "requiredBond()": "3ff8bbf6",
    "requiredEarnings()": "62ba54a9",
    "requiredMinBond()": "73da47c8",
    "setCreditWindow(uint64)": "2ddfde34",
    "setGasBonus(uint256)": "90f29643",
    "setGasMultiplier(uint256)": "14f29a1d",
    "setKeep3r(address)": "4cc18e57",
    "setKeep3rHelper(address)": "72da828a",
    "setKeep3rRequirements(address,uint256,uint256,uint256)": "5905b407",
    "setMaxMultiplier(uint256)": "01526a43",
    "setMechanicsRegistry(address)": "ef47da6d",
    "setOnlyEOA(bool)": "780b5c23",
    "setPause(bool)": "bedb86fb",
    "setPendingGovernor(address)": "f235757f",
    "setStealthRelayer(address)": "8c9341f1",
    "setSweepingBonus(uint64)": "2c252d28",
    "setSweepingStart(uint64)": "28cf7e9f",
    "setV2Keeper(address)": "26e6cd26",
    "setWorkCooldown(uint256)": "74c2ca83",
    "stealthRelayer()": "259428a0",
    "strategies()": "d9f9027f",
    "sweepingParams()": "64594271",
    "updateRequiredAmount(address,uint256)": "b9a52e28",
    "updateRequiredAmounts(address[],uint256[])": "fbea5709",
    "v2Keeper()": "92b3b265",
    "work(address)": "36df7ea5",
    "workCooldown()": "e06a7cb9",
    "workable(address)": "9f471303"
  },
  "id": 34
}