{
  "abi": [
    {
      "inputs": [
        {
          "internalType": "address",
          "name": "_governor",
          "type": "address"
        },
        {
          "internalType": "address",
          "name": "_mechanicsRegistry",
          "type": "address"
        },
        {
          "internalType": "address",
          "name": "_stealthRelayer",
          "type": "address"
        },
        {
          "internalType": "address",
          "name": "_v2Keeper",
          "type": "address"
        },
        {
          "internalType": "uint256",
          "name": "_workCooldown",
          "type": "uint256"
        },
        {
          "internalType": "address",
          "name": "_keep3r",
          "type": "address"
        },
        {
          "internalType": "address",
          "name": "_keep3rHelper",
          "type": "address"
        },
        {
          "internalType": "address",
          "name": "_bond",
          "type": "address"
        },
        {
          "internalType": "uint256",
          "name": "_minBond",
          "type": "uint256"
        },
        {
          "internalType": "uint256",
          "name": "_earned",
          "type": "uint256"
        },
        {
          "internalType": "uint256",
          "name": "_age",
          "type": "uint256"
        },
        {
          "internalType": "bool",
          "name": "_onlyEOA",
          "type": "bool"
        }
      ],
      "stateMutability": "nonpayable",
      "type": "constructor"
    },
    {
      "inputs": [],
      "name": "ExtraCreditUsed",
      "type": "error"
    },
    {
      "inputs": [],
      "name": "KeeperNotValid",
      "type": "error"
    },
    {
      "inputs": [],
      "name": "MaxMultiplier",
      "type": "error"
    },
    {
      "inputs": [],
      "name": "NoChangeInPause",
      "type": "error"
    },
    {
      "inputs": [],
      "name": "OnlyEOA",
      "type": "error"
    },
    {
      "inputs": [],
      "name": "OnlyGovernor",
      "type": "error"
    },
    {
      "inputs": [],
      "name": "OnlyGovernorOrMechanic",
      "type": "error"
    },
    {
      "inputs": [],
      "name": "OnlyPendingGovernor",
      "type": "error"
    },
    {
      "inputs": [],
      "name": "OnlyStealthRelayer",
      "type": "error"
    },
    {
      "inputs": [],
      "name": "Paused",
      "type": "error"
    },
    {
      "inputs": [],
      "name": "StrategiesPackedSet_Overflow",
      "type": "error"
    },
    {
      "inputs": [],
      "name": "StrategyAlreadyAdded",
      "type": "error"
    },
    {
      "inputs": [],
      "name": "StrategyNotAdded",
      "type": "error"
    },
    {
      "inputs": [],
      "name": "StrategyNotWorkable",
      "type": "error"
    },
    {
      "inputs": [],
      "name": "WrongLengths",
      "type": "error"
    },
    {
      "inputs": [],
      "name": "ZeroAddress",
      "type": "error"
    },
    {
      "inputs": [],
      "name": "ZeroCooldown",
      "type": "error"
    },
    {
      "anonymous": false,
      "inputs": [
        {
          "indexed": false,
          "internalType": "uint256",
          "name": "_delay",
          "type": "uint256"
        }
      ],
      "name": "CreditOptimisationWindowModified",
      "type": "event"
    },
    {
      "anonymous": false,
      "inputs": [
        {
          "indexed": false,
          "internalType": "address",
          "name": "_strategy",
          "type": "address"
        }
      ],
      "name": "ForceWorked",
      "type": "event"
    },
    {
      "anonymous": false,
      "inputs": [
        {
          "indexed": false,
          "internalType": "uint256",
          "name": "_gasBonus",
          "type": "uint256"
        }
      ],
      "name": "GasBonusSet",
      "type": "event"
    },
    {
      "anonymous": false,
      "inputs": [
        {
          "indexed": false,
          "internalType": "uint256",
          "name": "_initialGas",
          "type": "uint256"
        },
        {
          "indexed": false,
          "internalType": "uint256",
          "name": "_gasAfterWork",
          "type": "uint256"
        },
        {
          "indexed": false,
          "internalType": "uint256",
          "name": "_bonus",
          "type": "uint256"
        }
      ],
      "name": "GasMetered",
      "type": "event"
    },
    {
      "anonymous": false,
      "inputs": [
        {
          "indexed": false,
          "internalType": "uint256",
          "name": "_gasMultiplier",
          "type": "uint256"
        }
      ],
      "name": "GasMultiplierSet",
      "type": "event"
    },
    {
      "anonymous": false,
      "inputs": [
        {
          "indexed": false,
          "internalType": "address",
          "name": "_keep3rHelper",
          "type": "address"
        }
      ],
      "name": "Keep3rHelperSet",
      "type": "event"
    },
    {
      "anonymous": false,
      "inputs": [
        {
          "indexed": false,
          "internalType": "address",
          "name": "_bond",
          "type": "address"
        },
        {
          "indexed": false,
          "internalType": "uint256",
          "name": "_minBond",
          "type": "uint256"
        },
        {
          "indexed": false,
          "internalType": "uint256",
          "name": "_earned",
          "type": "uint256"
        },
        {
          "indexed": false,
          "internalType": "uint256",
          "name": "_age",
          "type": "uint256"
        }
      ],
      "name": "Keep3rRequirementsSet",
      "type": "event"
    },
    {
      "anonymous": false,
      "inputs": [
        {
          "indexed": false,
          "internalType": "address",
          "name": "_keep3r",
          "type": "address"
        }
      ],
      "name": "Keep3rSet",
      "type": "event"
    },
    {
      "anonymous": false,
      "inputs": [
        {
          "indexed": false,
          "internalType": "address",
          "name": "_strategy",
          "type": "address"
        }
      ],
      "name": "KeeperWorked",
      "type": "event"
    },
    {
      "anonymous": false,
      "inputs": [
        {
          "indexed": false,
          "internalType": "uint256",
          "name": "_maxMultiplier",
          "type": "uint256"
        }
      ],
      "name": "MaxMultiplierSet",
      "type": "event"
    },
    {
      "anonymous": false,
      "inputs": [
        {
          "indexed": false,
          "internalType": "bool",
          "name": "_onlyEOA",
          "type": "bool"
        }
      ],
      "name": "OnlyEOASet",
      "type": "event"
    },
    {
      "anonymous": false,
      "inputs": [
        {
          "indexed": false,
          "internalType": "bool",
          "name": "_paused",
          "type": "bool"
        }
      ],
      "name": "PauseSet",
      "type": "event"
    },
    {
      "anonymous": false,
      "inputs": [
        {
          "indexed": false,
          "internalType": "address",
          "name": "_newGovernor",
          "type": "address"
        }
      ],
      "name": "PendingGovernorAccepted",
      "type": "event"
    },
    {
      "anonymous": false,
      "inputs": [
        {
          "indexed": false,
          "internalType": "address",
          "name": "_governor",
          "type": "address"
        },
        {
          "indexed": false,
          "internalType": "address",
          "name": "_pendingGovernor",
          "type": "address"
        }
      ],
      "name": "PendingGovernorSet",
      "type": "event"
    },
    {
      "anonymous": false,
      "inputs": [
        {
          "indexed": false,
          "internalType": "address",
          "name": "_stealthRelayer",
          "type": "address"
        }
      ],
      "name": "StealthRelayerSet",
      "type": "event"
    },
    {
      "anonymous": false,
      "inputs": [
        {
          "indexed": false,
          "internalType": "address",
          "name": "_strategy",
          "type": "address"
        },
        {
          "indexed": false,
          "internalType": "uint256",
          "name": "_requiredAmount",
          "type": "uint256"
        }
      ],
      "name": "StrategyAdded",
      "type": "event"
    },
    {
      "anonymous": false,
      "inputs": [
        {
          "indexed": false,
          "internalType": "address",
          "name": "_strategy",
          "type": "address"
        },
        {
          "indexed": false,
          "internalType": "uint256",
          "name": "_requiredAmount",
          "type": "uint256"
        }
      ],
      "name": "StrategyModified",
      "type": "event"
    },
    {
      "anonymous": false,
      "inputs": [
        {
          "indexed": false,
          "internalType": "address",
          "name": "_strategy",
          "type": "address"
        }
      ],
      "name": "StrategyRemoved",
      "type": "event"
    },
    {
      "anonymous": false,
      "inputs": [
        {
          "indexed": true,
          "internalType": "address",
          "name": "_strategy",
          "type": "address"
        }
      ],
      "name": "SweepingOldStrategy",
      "type": "event"
    },
    {
      "anonymous": false,
      "inputs": [
        {
          "indexed": false,
          "internalType": "uint256",
          "name": "_sweepingPeriodStart",
          "type": "uint256"
        }
      ],
      "name": "SweepingStartModified",
      "type": "event"
    },
    {
      "anonymous": false,
      "inputs": [
        {
          "indexed": false,
          "internalType": "address",
          "name": "_v2Keeper",
          "type": "address"
        }
      ],
      "name": "V2KeeperSet",
      "type": "event"
    },
    {
      "anonymous": false,
      "inputs": [
        {
          "indexed": false,
          "internalType": "uint256",
          "name": "_newWorkCooldown",
          "type": "uint256"
        }
      ],
      "name": "WorkCooldownSet",
      "type": "event"
    },
    {
      "inputs": [],
      "name": "BASE",
      "outputs": [
        {
          "internalType": "uint32",
          "name": "",
          "type": "uint32"
        }
      ],
      "stateMutability": "view",
      "type": "function"
    },
    {
      "inputs": [],
      "name": "acceptPendingGovernor",
      "outputs": [],
      "stateMutability": "nonpayable",
      "type": "function"
    },
    {
      "inputs": [
        {
          "internalType": "address[]",
          "name": "_strategies",
          "type": "address[]"
        },
        {
          "internalType": "uint256[]",
          "name": "_requiredAmounts",
          "type": "uint256[]"
        }
      ],
      "name": "addStrategies",
      "outputs": [],
      "stateMutability": "nonpayable",
      "type": "function"
    },
    {
      "inputs": [
        {
          "internalType": "address",
          "name": "_strategy",
          "type": "address"
        },
        {
          "internalType": "uint256",
          "name": "_requiredAmount",
          "type": "uint256"
        }
      ],
      "name": "addStrategy",
      "outputs": [],
      "stateMutability": "nonpayable",
      "type": "function"
    },
    {
      "inputs": [
        {
          "internalType": "address",
          "name": "_strategy",
          "type": "address"
        }
      ],
      "name": "forceWork",
      "outputs": [],
      "stateMutability": "nonpayable",
      "type": "function"
    },
    {
      "inputs": [
        {
          "internalType": "address",
          "name": "_strategy",
          "type": "address"
        }
      ],
      "name": "forceWorkUnsafe",
      "outputs": [],
      "stateMutability": "nonpayable",
      "type": "function"
    },
    {
      "inputs": [],
      "name": "gasBonus",
      "outputs": [
        {
          "internalType": "uint256",
          "name": "",
          "type": "uint256"
        }
      ],
      "stateMutability": "view",
      "type": "function"
    },
    {
      "inputs": [],
      "name": "gasMultiplier",
      "outputs": [
        {
          "internalType": "uint256",
          "name": "",
          "type": "uint256"
        }
      ],
      "stateMutability": "view",
      "type": "function"
    },
    {
      "inputs": [],
      "name": "governor",
      "outputs": [
        {
          "internalType": "address",
          "name": "",
          "type": "address"
        }
      ],
      "stateMutability": "view",
      "type": "function"
    },
    {
      "inputs": [
        {
          "internalType": "address",
          "name": "_mechanic",
          "type": "address"
        }
      ],
      "name": "isMechanic",
      "outputs": [
        {
          "internalType": "bool",
          "name": "_isMechanic",
          "type": "bool"
        }
      ],
      "stateMutability": "view",
      "type": "function"
    },
    {
      "inputs": [],
      "name": "keep3r",
      "outputs": [
        {
          "internalType": "address",
          "name": "",
          "type": "address"
        }
      ],
      "stateMutability": "view",
      "type": "function"
    },
    {
      "inputs": [],
      "name": "keep3rHelper",
      "outputs": [
        {
          "internalType": "address",
          "name": "",
          "type": "address"
        }
      ],
      "stateMutability": "view",
      "type": "function"
    },
    {
      "inputs": [
        {
          "internalType": "address",
          "name": "_strategy",
          "type": "address"
        }
      ],
      "name": "lastWorkAt",
      "outputs": [
        {
          "internalType": "uint256",
          "name": "_lastWorkAt",
          "type": "uint256"
        }
      ],
      "stateMutability": "view",
      "type": "function"
    },
    {
      "inputs": [],
      "name": "maxMultiplier",
      "outputs": [
        {
          "internalType": "uint256",
          "name": "",
          "type": "uint256"
        }
      ],
      "stateMutability": "view",
      "type": "function"
    },
    {
      "inputs": [],
      "name": "mechanicsRegistry",
      "outputs": [
        {
          "internalType": "address",
          "name": "_mechanicRegistry",
          "type": "address"
        }
      ],
      "stateMutability": "view",
      "type": "function"
    },
    {
      "inputs": [],
      "name": "onlyEOA",
      "outputs": [
        {
          "internalType": "bool",
          "name": "",
          "type": "bool"
        }
      ],
      "stateMutability": "view",
      "type": "function"
    },
    {
      "inputs": [],
      "name": "paused",
      "outputs": [
        {
          "internalType": "bool",
          "name": "",
          "type": "bool"
        }
      ],
      "stateMutability": "view",
      "type": "function"
    },
    {
      "inputs": [],
      "name": "pendingGovernor",
      "outputs": [
        {
          "internalType": "address",
          "name": "",
          "type": "address"
        }
      ],
      "stateMutability": "view",
      "type": "function"
    },
    {
      "inputs": [
        {
          "internalType": "address",
          "name": "_strategy",
          "type": "address"
        }
      ],
      "name": "removeStrategy",
      "outputs": [],
      "stateMutability": "nonpayable",
      "type": "function"
    },
    {
      "inputs": [],
      "name": "requiredAge",
      "outputs": [
        {
          "internalType": "uint256",
          "name": "",
          "type": "uint256"
        }
      ],
      "stateMutability": "view",
      "type": "function"
    },
    {
      "inputs": [
        {
          "internalType": "address",
          "name": "_strategy",
          "type": "address"
        }
      ],
      "name": "requiredAmount",
      "outputs": [
        {
          "internalType": "uint256",
          "name": "_requiredAmount",
          "type": "uint256"
        }
      ],
      "stateMutability": "view",
      "type": "function"
    },
    {
      "inputs": [],
      "name": "requiredBond",
      "outputs": [
        {
          "internalType": "address",
          "name": "",
          "type": "address"
        }
      ],
      "stateMutability": "view",
      "type": "function"
    },
    {
      "inputs": [],
      "name": "requiredEarnings",
      "outputs": [
        {
          "internalType": "uint256",
          "name": "",
          "type": "uint256"
        }
      ],
      "stateMutability": "view",
      "type": "function"
    },
    {
      "inputs": [],
      "name": "requiredMinBond",
      "outputs": [
        {
          "internalType": "uint256",
          "name": "",
          "type": "uint256"
        }
      ],
      "stateMutability": "view",
      "type": "function"
    },
    {
      "inputs": [
        {
          "internalType": "uint128",
          "name": "_window",
          "type": "uint128"
        }
      ],
      "name": "setCreditWindow",
      "outputs": [],
      "stateMutability": "nonpayable",
      "type": "function"
    },
    {
      "inputs": [
        {
          "internalType": "uint256",
          "name": "_gasBonus",
          "type": "uint256"
        }
      ],
      "name": "setGasBonus",
      "outputs": [],
      "stateMutability": "nonpayable",
      "type": "function"
    },
    {
      "inputs": [
        {
          "internalType": "uint256",
          "name": "_gasMultiplier",
          "type": "uint256"
        }
      ],
      "name": "setGasMultiplier",
      "outputs": [],
      "stateMutability": "nonpayable",
      "type": "function"
    },
    {
      "inputs": [
        {
          "internalType": "address",
          "name": "_keep3r",
          "type": "address"
        }
      ],
      "name": "setKeep3r",
      "outputs": [],
      "stateMutability": "nonpayable",
      "type": "function"
    },
    {
      "inputs": [
        {
          "internalType": "address",
          "name": "_keep3rHelper",
          "type": "address"
        }
      ],
      "name": "setKeep3rHelper",
      "outputs": [],
      "stateMutability": "nonpayable",
      "type": "function"
    },
    {
      "inputs": [
        {
          "internalType": "address",
          "name": "_bond",
          "type": "address"
        },
        {
          "internalType": "uint256",
          "name": "_minBond",
          "type": "uint256"
        },
        {
          "internalType": "uint256",
          "name": "_earned",
          "type": "uint256"
        },
        {
          "internalType": "uint256",
          "name": "_age",
          "type": "uint256"
        }
      ],
      "name": "setKeep3rRequirements",
      "outputs": [],
      "stateMutability": "nonpayable",
      "type": "function"
    },
    {
      "inputs": [
        {
          "internalType": "uint256",
          "name": "_maxMultiplier",
          "type": "uint256"
        }
      ],
      "name": "setMaxMultiplier",
      "outputs": [],
      "stateMutability": "nonpayable",
      "type": "function"
    },
    {
      "inputs": [
        {
          "internalType": "address",
          "name": "_mechanicsRegistry",
          "type": "address"
        }
      ],
      "name": "setMechanicsRegistry",
      "outputs": [],
      "stateMutability": "nonpayable",
      "type": "function"
    },
    {
      "inputs": [
        {
          "internalType": "bool",
          "name": "_onlyEOA",
          "type": "bool"
        }
      ],
      "name": "setOnlyEOA",
      "outputs": [],
      "stateMutability": "nonpayable",
      "type": "function"
    },
    {
      "inputs": [
        {
          "internalType": "bool",
          "name": "_paused",
          "type": "bool"
        }
      ],
      "name": "setPause",
      "outputs": [],
      "stateMutability": "nonpayable",
      "type": "function"
    },
    {
      "inputs": [
        {
          "internalType": "address",
          "name": "_pendingGovernor",
          "type": "address"
        }
      ],
      "name": "setPendingGovernor",
      "outputs": [],
      "stateMutability": "nonpayable",
      "type": "function"
    },
    {
      "inputs": [
        {
          "internalType": "address",
          "name": "_stealthRelayer",
          "type": "address"
        }
      ],
      "name": "setStealthRelayer",
      "outputs": [],
      "stateMutability": "nonpayable",
      "type": "function"
    },
    {
      "inputs": [
        {
          "internalType": "uint128",
          "name": "_sweepingPeriodStart",
          "type": "uint128"
        }
      ],
      "name": "setSweepingStart",
      "outputs": [],
      "stateMutability": "nonpayable",
      "type": "function"
    },
    {
      "inputs": [
        {
          "internalType": "address",
          "name": "_v2Keeper",
          "type": "address"
        }
      ],
      "name": "setV2Keeper",
      "outputs": [],
      "stateMutability": "nonpayable",
      "type": "function"
    },
    {
      "inputs": [
        {
          "internalType": "uint256",
          "name": "_workCooldown",
          "type": "uint256"
        }
      ],
      "name": "setWorkCooldown",
      "outputs": [],
      "stateMutability": "nonpayable",
      "type": "function"
    },
    {
      "inputs": [],
      "name": "stealthRelayer",
      "outputs": [
        {
          "internalType": "address",
          "name": "",
          "type": "address"
        }
      ],
      "stateMutability": "view",
      "type": "function"
    },
    {
      "inputs": [],
      "name": "strategies",
      "outputs": [
        {
          "internalType": "address[]",
          "name": "_strategies",
          "type": "address[]"
        }
      ],
      "stateMutability": "view",
      "type": "function"
    },
    {
      "inputs": [],
      "name": "sweepingParams",
      "outputs": [
        {
          "internalType": "uint128",
          "name": "sweepingPeriodStartAt",
          "type": "uint128"
        },
        {
          "internalType": "uint128",
          "name": "creditOptimisationWindow",
          "type": "uint128"
        }
      ],
      "stateMutability": "view",
      "type": "function"
    },
    {
      "inputs": [
        {
          "internalType": "address",
          "name": "_strategy",
          "type": "address"
        },
        {
          "internalType": "uint256",
          "name": "_requiredAmount",
          "type": "uint256"
        }
      ],
      "name": "updateRequiredAmount",
      "outputs": [],
      "stateMutability": "nonpayable",
      "type": "function"
    },
    {
      "inputs": [
        {
          "internalType": "address[]",
          "name": "_strategies",
          "type": "address[]"
        },
        {
          "internalType": "uint256[]",
          "name": "_requiredAmounts",
          "type": "uint256[]"
        }
      ],
      "name": "updateRequiredAmounts",
      "outputs": [],
      "stateMutability": "nonpayable",
      "type": "function"
    },
    {
      "inputs": [],
      "name": "v2Keeper",
      "outputs": [
        {
          "internalType": "contract IV2Keeper",
          "name": "",
          "type": "address"
        }
      ],
      "stateMutability": "view",
      "type": "function"
    },
    {
      "inputs": [
        {
          "internalType": "address",
          "name": "_strategy",
          "type": "address"
        }
      ],
      "name": "work",
      "outputs": [],
      "stateMutability": "nonpayable",
      "type": "function"
    },
    {
      "inputs": [],
      "name": "workCooldown",
      "outputs": [
        {
          "internalType": "uint256",
          "name": "",
          "type": "uint256"
        }
      ],
      "stateMutability": "view",
      "type": "function"
    },
    {
      "inputs": [
        {
          "internalType": "address",
          "name": "_strategy",
          "type": "address"
        }
      ],
      "name": "workable",
      "outputs": [
        {
          "internalType": "bool",
          "name": "_isWorkable",
          "type": "bool"
        }
      ],
      "stateMutability": "view",
      "type": "function"
    }
  ],
  "bytecode": {
    "object": "0x60806040526007805474eb02addcfd8b773a5ffa6b9d1fe99c566f8c44cc00610100600160a81b0319909116179055600880546001600160a01b031990811673edde080e28eb53532bd1804de51bd9cd5cadf0d41790915562018e70600955612710600a55613a98600b55600c8054909116731ceb5cb57c4d4e2b2433641b95dd330a33185a441790556802b5e3af16b1880000600d55348015620000a357600080fd5b506040516200297c3803806200297c833981016040819052620000c69162000496565b600080546001600160a01b0319166001600160a01b038d161790558b898c8a81846001600160a01b0381166200010f5760405163d92e233d60e01b815260040160405180910390fd5b600180546001600160a01b03199081166001600160a01b03938416179091556003805490911691861691909117905550801562000151576200015181620001f4565b5050505062000166876200023060201b60201c565b620001718662000287565b6200017c8a620002d6565b6200018a858585856200032d565b6200019581620003a7565b620001a362026610620003e9565b620001ce6103e8600a54610352620001bc91906200056f565b620001c891906200059d565b6200041f565b50505060e160841b6001600160801b0342161760115550620005c0975050505050505050565b60068190556040518181527f9fe060036cc32af473cb55404025a8ef2cc9a08c36fa10a7a1ccd18cf613f1ed906020015b60405180910390a150565b60078054610100600160a81b0319166101006001600160a01b038416908102919091179091556040519081527f0fec338132ef1fa68cd11242357e5e5e5af67dfd0c957b53ef411bca535817ef9060200162000225565b600880546001600160a01b0319166001600160a01b0383169081179091556040519081527f77e14ebc8982ca2b21d8410b77a6ca8a857864dfab5d337f154fbacea73c11919060200162000225565b60108054610100600160a81b0319166101006001600160a01b038416908102919091179091556040519081527f4803a65acc131d65526972ad19dbfa7490ed1f24f6ece0c71f4898d86a01b69b9060200162000225565b600c80546001600160a01b0319166001600160a01b038616908117909155600d849055600e839055600f82905560408051918252602082018590528101839052606081018290527fadc260414d0381ec9727c6f819aa0ebe789ad81016c176765f40d3bc301e5d6b9060800160405180910390a150505050565b6010805460ff19168215159081179091556040519081527fa9bf0ee725a8887f07a03c36e33aa100bb0218d44b9fff855be8504c480ab99b9060200162000225565b60098190556040518181527f6c434ba0e7a3588c2330d8f479f247d9269f069a8d630dbb2cb60a7382a487f09060200162000225565b600b54811115620004435760405163cd9ba70160e01b815260040160405180910390fd5b600a8190556040518181527f2985ceccbff6f8695faca980a17eb9a590d2f080d024f944d3c7743ba038c3999060200162000225565b80516001600160a01b03811681146200049157600080fd5b919050565b6000806000806000806000806000806000806101808d8f031215620004ba57600080fd5b620004c58d62000479565b9b50620004d560208e0162000479565b9a50620004e560408e0162000479565b9950620004f560608e0162000479565b985060808d015197506200050c60a08e0162000479565b96506200051c60c08e0162000479565b95506200052c60e08e0162000479565b94506101008d015193506101208d015192506101408d015191506101608d015180151581146200055b57600080fd5b809150509295989b509295989b509295989b565b60008160001904831182151516156200059857634e487b7160e01b600052601160045260246000fd5b500290565b600082620005bb57634e487b7160e01b600052601260045260246000fd5b500490565b6123ac80620005d06000396000f3fe608060405234801561001057600080fd5b50600436106102a05760003560e01c806373da47c811610167578063dd7ba420116100ce578063ef47da6d11610087578063ef47da6d146105e9578063f11a1d1a146105fc578063f235757f1461060f578063f7ac5fc614610622578063fb2a410a14610635578063fbea57091461064257600080fd5b8063dd7ba42014610580578063e06a7cb914610593578063e3056a341461059c578063e44f6d07146105af578063ea3c2b9c146105c2578063ec342ad0146105cb57600080fd5b80639f471303116101205780639f4713031461050c578063b9a52e281461051f578063bedb86fb14610532578063c1cf072314610545578063c9411e2214610558578063d9f9027f1461056b57600080fd5b806373da47c8146104a457806374c2ca83146104ad578063780b5c23146104c05780638c9341f1146104d357806390f29643146104e657806392b3b265146104f957600080fd5b806328584aa71161020b57806362ba54a9116101c457806362ba54a914610416578063634c7bb51461041f578063645942711461043757806365834acc146104755780636b1b6e3e1461048857806372da828a1461049157600080fd5b806328584aa71461039a57806336df7ea5146103ad5780633ff8bbf6146103c05780634cc18e57146103d35780635905b407146103e65780635c975abb146103f957600080fd5b806314f29a1d1161025d57806314f29a1d1461032d57806316ea58da14610340578063175188e814610349578063259428a01461035c57806325fc3b221461037457806326e6cd261461038757600080fd5b806301526a43146102a55780630187aea0146102ba5780630c340a24146102d657806310262803146103015780631078f3881461031457806313f6986d14610325575b600080fd5b6102b86102b3366004612037565b610655565b005b6102c3600b5481565b6040519081526020015b60405180910390f35b6001546102e9906001600160a01b031681565b6040516001600160a01b0390911681526020016102cd565b6102c361030f366004612065565b61068c565b6000546001600160a01b03166102e9565b6102b86106b0565b6102b861033b366004612037565b6106e5565b6102c360095481565b6102b8610357366004612065565b610719565b6010546102e99061010090046001600160a01b031681565b6102b86103823660046120ce565b61072b565b6102b8610395366004612065565b6107c0565b6102c36103a8366004612065565b6107f4565b6102b86103bb366004612065565b61080a565b600c546102e9906001600160a01b031681565b6102b86103e1366004612065565b610c6f565b6102b86103f436600461213a565b610ca3565b6007546104069060ff1681565b60405190151581526020016102cd565b6102c3600e5481565b6007546102e99061010090046001600160a01b031681565b601154610455906001600160801b0380821691600160801b90041682565b604080516001600160801b039384168152929091166020830152016102cd565b610406610483366004612065565b610ce0565b6102c3600f5481565b6102b861049f366004612065565b610d4f565b6102c3600d5481565b6102b86104bb366004612037565b610d83565b6102b86104ce366004612183565b610d95565b6102b86104e1366004612065565b610dc9565b6102b86104f4366004612037565b610dfd565b6003546102e9906001600160a01b031681565b61040661051a366004612065565b610e31565b6102b861052d3660046121a0565b610e3c565b6102b8610540366004612183565b610e53565b6102b86105533660046121cc565b610e87565b6102b86105663660046121a0565b610eee565b610573610f01565b6040516102cd91906121f5565b6102b861058e366004612065565b610fb2565b6102c360065481565b6002546102e9906001600160a01b031681565b6102b86105bd3660046121cc565b61106f565b6102c3600a5481565b6105d461271081565b60405163ffffffff90911681526020016102cd565b6102b86105f7366004612065565b6110c6565b6008546102e9906001600160a01b031681565b6102b861061d366004612065565b61110f565b6102b8610630366004612065565b611143565b6010546104069060ff1681565b6102b86106503660046120ce565b611155565b6001546001600160a01b031633146106805760405163070545c960e51b815260040160405180910390fd5b610689816111e3565b50565b60006106aa61069c600484611218565b60a01c65ffffffffffff1690565b92915050565b6002546001600160a01b031633146106db57604051639ba0305d60e01b815260040160405180910390fd5b6106e361128c565b565b6001546001600160a01b031633146107105760405163070545c960e51b815260040160405180910390fd5b610689816112ea565b61072233611342565b61068981611384565b61073433611342565b828114610754576040516381e4d28d60e01b815260040160405180910390fd5b60005b838110156107b9576107a785858381811061077457610774612242565b90506020020160208101906107899190612065565b84848481811061079b5761079b612242565b905060200201356113f1565b806107b18161226e565b915050610757565b5050505050565b6001546001600160a01b031633146107eb5760405163070545c960e51b815260040160405180910390fd5b6106898161146e565b60006106aa610804600484611218565b60d01c90565b60075460ff161561082e576040516313d0ff5960e31b815260040160405180910390fd5b60006108386114bc565b60105490915061010090046001600160a01b0316331461086b576040516332ca9ab360e11b815260040160405180910390fd5b6000601060019054906101000a90046001600160a01b03166001600160a01b031663fc9c8d396040518163ffffffff1660e01b8152600401602060405180830381865afa1580156108c0573d6000803e3d6000fd5b505050506040513d601f19601f820116820180604052508101906108e49190612287565b90506108ef816114db565b60006108fa846114f8565b610917576040516398ae0b2160e01b815260040160405180910390fd5b836001600160a01b031663ed882c2b61092f8661155f565b6040518263ffffffff1660e01b815260040161094d91815260200190565b602060405180830381865afa15801561096a573d6000803e3d6000fd5b505050506040513d601f19601f8201168201806040525081019061098e91906122a4565b6109c15761099b84611594565b156109a8575060016109c1565b6040516398ae0b2160e01b815260040160405180910390fd5b6109cd6004854261177f565b6109d68461183c565b6040516001600160a01b03851681527fac848b4596fbd35b139e8ee158748a1c8091becf3e830c628b4a79ad869d17029060200160405180910390a16000610a1c6114bc565b6008546009549192506000916001600160a01b0390911690632248e82d908690610a46868a6122c1565b610a5091906122d8565b6040516001600160e01b031960e085901b1681526001600160a01b0390921660048301526024820152604401602060405180830381865afa158015610a99573d6000803e3d6000fd5b505050506040513d601f19601f82011682018060405250810190610abd91906122f0565b600a5490915061271090610ad19083612309565b610adb9190612328565b6007546040516308a336b960e11b81526001600160a01b03878116600483015260248201849052929350610100909104909116906311466d7290604401600060405180830381600087803b158015610b3257600080fd5b505af1158015610b46573d6000803e3d6000fd5b5050600954604080518981526020810187905280820192909252517f5b3acbf5cbe55940e1bd9235bb985ccca97e9028d7489290f08e6504e76b88d39350908190036060019150a182600103610bcb576040516001600160a01b038716907fb8598352244e9f6c9eaffc2f9cc4f10d72049d383bd0a5d4e2b2152d67ffd27790600090a25b826001148015610c49575060075460405163a676f9ff60e01b8152306004820152429161010090046001600160a01b03169063a676f9ff90602401602060405180830381865afa158015610c23573d6000803e3d6000fd5b505050506040513d601f19601f82011682018060405250810190610c4791906122f0565b145b15610c675760405163627a48b960e01b815260040160405180910390fd5b505050505050565b6001546001600160a01b03163314610c9a5760405163070545c960e51b815260040160405180910390fd5b61068981611897565b6001546001600160a01b03163314610cce5760405163070545c960e51b815260040160405180910390fd5b610cda848484846118ed565b50505050565b60008054604051631960d2b360e21b81526001600160a01b038481166004830152909116906365834acc90602401602060405180830381865afa158015610d2b573d6000803e3d6000fd5b505050506040513d601f19601f820116820180604052508101906106aa91906122a4565b6001546001600160a01b03163314610d7a5760405163070545c960e51b815260040160405180910390fd5b61068981611967565b610d8c33611342565b610689816119b5565b6001546001600160a01b03163314610dc05760405163070545c960e51b815260040160405180910390fd5b610689816119ea565b6001546001600160a01b03163314610df45760405163070545c960e51b815260040160405180910390fd5b61068981611a2b565b6001546001600160a01b03163314610e285760405163070545c960e51b815260040160405180910390fd5b61068981611a81565b60006106aa82611ab6565b610e4533611342565b610e4f8282611b53565b5050565b6001546001600160a01b03163314610e7e5760405163070545c960e51b815260040160405180910390fd5b61068981611bc6565b610e9033611342565b601180546fffffffffffffffffffffffffffffffff19166001600160801b0383169081179091556040519081527f6eea75b4e494842dedbbdbc13f497db10c3d2ee9e9af1a71e8e94cc6e6e91a3b906020015b60405180910390a150565b610ef733611342565b610e4f82826113f1565b60606000610f0e60045490565b90508067ffffffffffffffff811115610f2957610f2961234a565b604051908082528060200260200182016040528015610f52578160200160208202803683370190505b50915060005b81811015610fad57610f71610f6e600483611c32565b90565b838281518110610f8357610f83612242565b6001600160a01b039092166020928302919091019091015280610fa58161226e565b915050610f58565b505090565b60105461010090046001600160a01b03163314610fe2576040516332ca9ab360e11b815260040160405180910390fd5b6000601060019054906101000a90046001600160a01b03166001600160a01b031663fc9c8d396040518163ffffffff1660e01b8152600401602060405180830381865afa158015611037573d6000803e3d6000fd5b505050506040513d601f19601f8201168201806040525081019061105b9190612287565b905061106681611342565b610e4f82611c49565b61107833611342565b601180546001600160801b03908116600160801b918416918202179091556040519081527fafd72e5a6a24767999db2ecb4da14de7f5d3f06783983aecf5fb7c4ed387eb3890602001610ee3565b6001546001600160a01b031633146110f15760405163070545c960e51b815260040160405180910390fd5b600080546001600160a01b0319166001600160a01b03831617905550565b6001546001600160a01b0316331461113a5760405163070545c960e51b815260040160405180910390fd5b61068981611c8b565b61114c33611342565b61068981611c49565b61115e33611342565b82811461117e576040516381e4d28d60e01b815260040160405180910390fd5b60005b838110156107b9576111d185858381811061119e5761119e612242565b90506020020160208101906111b39190612065565b8484848181106111c5576111c5612242565b90506020020135611b53565b806111db8161226e565b915050611181565b600b8190556040518181527fad852bc3e1d8ed93d9b2d9290bdb1d945c12994fd7b826f5ff91ec56245aefda90602001610ee3565b6001600160a01b03811660009081526001830160205260408120548103611241575060006106aa565b6001600160a01b038216600090815260018085016020526040909120548491611269916122c1565b8154811061127957611279612242565b9060005260206000200154905092915050565b60028054600180546001600160a01b0383166001600160a01b031991821681179092559091169091556040519081527f5d5d6e01b731c3e68060f7fe13156f6197d4aeffc2d6f498e34c717ae616b7349060200160405180910390a1565b600b5481111561130d5760405163cd9ba70160e01b815260040160405180910390fd5b600a8190556040518181527f2985ceccbff6f8695faca980a17eb9a590d2f080d024f944d3c7743ba038c39990602001610ee3565b6001546001600160a01b03828116911614801590611366575061136481610ce0565b155b15610689576040516306a22f2960e01b815260040160405180910390fd5b61138f600482611d0e565b6113ac57604051638716f5eb60e01b815260040160405180910390fd5b6113b7600482611d2f565b506040516001600160a01b03821681527f09a1db4b80c32706328728508c941a6b954f31eb5affd32f236c1fd405f8fea490602001610ee3565b6113fc600483611d0e565b1561141a5760405163165e236760e01b815260040160405180910390fd5b61142660048383611e48565b50604080516001600160a01b0384168152602081018390527f2f564a83158ad1831793ad3e69257b52f39ece5d49cb0d8746708ecb9ef964da91015b60405180910390a15050565b600380546001600160a01b0319166001600160a01b0383169081179091556040519081527fd849a95a2e1f5c1d13dbda107dffe1c85db06337080c299a8474c4d0a4fa5ca590602001610ee3565b6000603f5a6114cc906040612309565b6114d69190612328565b905090565b60105460ff16156114ef576114ef81611ec9565b61068981611ef2565b6000611505600483611d0e565b61152257604051638716f5eb60e01b815260040160405180910390fd5b600654158061154a575060065461153d61069c600485611218565b61154791906122d8565b42115b1561155757506001919050565b506000919050565b600080611570610804600485611218565b9050806000036115835750600092915050565b61158d4882612309565b9392505050565b60075460405163a676f9ff60e01b815230600482015260009182916101009091046001600160a01b03169063a676f9ff90602401602060405180830381865afa1580156115e5573d6000803e3d6000fd5b505050506040513d601f19601f8201168201806040525081019061160991906122f0565b90508060000361161c5750600092915050565b6000600760019054906101000a90046001600160a01b03166001600160a01b031663768b5d906040518163ffffffff1660e01b8152600401602060405180830381865afa158015611671573d6000803e3d6000fd5b505050506040513d601f19601f8201168201806040525081019061169591906122f0565b90506000816116a484426122c1565b6116ae9190612328565b6116b89083612309565b6116c290846122d8565b905060006116d083836122d8565b6011549091506116f090600160801b90046001600160801b0316826122c1565b4210156117035750600095945050505050565b60008361171042846122c1565b60115461172691906001600160801b0316612309565b6117309190612328565b8461173b42856122c1565b6117459086612309565b61174f9190612328565b61175990856122c1565b61176391906122d8565b905061177361069c600489611218565b11159695505050505050565b65ffffffffffff81106117a557604051633b8df9e960e01b815260040160405180910390fd5b6001600160a01b038216600090815260018085016020526040822054919085906117cf90846122c1565b815481106117df576117df612242565b600091825260209091200154905065ffffffffffff60a01b19811665ffffffffffff60a01b60a085901b161780866118186001866122c1565b8154811061182857611828612242565b600091825260209091200155505050505050565b60035460405163072e008f60e11b81526001600160a01b03838116600483015290911690630e5c011e90602401600060405180830381600087803b15801561188357600080fd5b505af11580156107b9573d6000803e3d6000fd5b60078054610100600160a81b0319166101006001600160a01b038416908102919091179091556040519081527f0fec338132ef1fa68cd11242357e5e5e5af67dfd0c957b53ef411bca535817ef90602001610ee3565b600c80546001600160a01b0319166001600160a01b038616908117909155600d849055600e839055600f82905560408051918252602082018590528101839052606081018290527fadc260414d0381ec9727c6f819aa0ebe789ad81016c176765f40d3bc301e5d6b9060800160405180910390a150505050565b600880546001600160a01b0319166001600160a01b0383169081179091556040519081527f77e14ebc8982ca2b21d8410b77a6ca8a857864dfab5d337f154fbacea73c119190602001610ee3565b60068190556040518181527f9fe060036cc32af473cb55404025a8ef2cc9a08c36fa10a7a1ccd18cf613f1ed90602001610ee3565b6010805460ff19168215159081179091556040519081527fa9bf0ee725a8887f07a03c36e33aa100bb0218d44b9fff855be8504c480ab99b90602001610ee3565b60108054610100600160a81b0319166101006001600160a01b038416908102919091179091556040519081527f4803a65acc131d65526972ad19dbfa7490ed1f24f6ece0c71f4898d86a01b69b90602001610ee3565b60098190556040518181527f6c434ba0e7a3588c2330d8f479f247d9269f069a8d630dbb2cb60a7382a487f090602001610ee3565b6000611ac1826114f8565b611acd57506000919050565b816001600160a01b031663ed882c2b611ae58461155f565b6040518263ffffffff1660e01b8152600401611b0391815260200190565b602060405180830381865afa158015611b20573d6000803e3d6000fd5b505050506040513d601f19601f82011682018060405250810190611b4491906122a4565b8061154a575061154a82611594565b611b5e600483611d0e565b611b7b57604051638716f5eb60e01b815260040160405180910390fd5b611b8760048383611fac565b604080516001600160a01b0384168152602081018390527fe4471c38177bd412e0358beccddbe74bad9465520f4f24a76c013bd404b0b0de9101611462565b60075481151560ff909116151503611bf1576040516337fe120d60e21b815260040160405180910390fd5b6007805460ff19168215159081179091556040519081527f878ac8a2ca79520471f8f3c8494fa802c03ce3bf034252aad7f22318984fdbdb90602001610ee3565b600082600001828154811061127957611279612242565b611c528161183c565b6040516001600160a01b03821681527fee8d688761ac1d0fda49e2ac999f0e46b3beaf16857a8e8905aeab2987dc8d3890602001610ee3565b6001600160a01b038116611cb25760405163d92e233d60e01b815260040160405180910390fd5b600280546001600160a01b0319166001600160a01b038381169182179092556001546040805191909316815260208101919091527f6353ec38ac394f8be94bfafcdd3580d356470599059eaeebedc3207e1cc03dec9101610ee3565b6001600160a01b031660009081526001919091016020526040902054151590565b6001600160a01b03811660009081526001830160205260408120548015611e3e576000611d5d6001836122c1565b8554909150600090611d71906001906122c1565b9050818114611de0576000866000018281548110611d9157611d91612242565b9060005260206000200154905080876000018481548110611db457611db4612242565b60009182526020808320909101929092556001600160a01b039092168252600188019052604090208390555b8554869080611df157611df1612360565b60019003818190600052602060002001600090559055856001016000866001600160a01b03166001600160a01b0316815260200190815260200160002060009055600193505050506106aa565b60009150506106aa565b600065ffffffffffff8210611e7057604051633b8df9e960e01b815260040160405180910390fd5b611e7a8484611d0e565b611ebf5750825460018181018555600085815260208082206001600160a01b03871660d087901b8117919095015586549382528287019052604090209190915561158d565b5060009392505050565b6001600160a01b038116321461068957604051639f8129d160e01b815260040160405180910390fd5b600754600c54600d54600e54600f54604051637cea367960e11b81526001600160a01b0387811660048301529485166024820152604481019390935260648301919091526084820152610100909204169063f9d46cf29060a4016020604051808303816000875af1158015611f6b573d6000803e3d6000fd5b505050506040513d601f19601f82011682018060405250810190611f8f91906122a4565b61068957604051636959565560e11b815260040160405180910390fd5b65ffffffffffff8110611fd257604051633b8df9e960e01b815260040160405180910390fd5b6001600160a01b03821660009081526001808501602052604082205491908590611ffc90846122c1565b8154811061200c5761200c612242565b60009182526020909120015490506001600160d01b03811660d084901b1780866118186001866122c1565b60006020828403121561204957600080fd5b5035919050565b6001600160a01b038116811461068957600080fd5b60006020828403121561207757600080fd5b813561158d81612050565b60008083601f84011261209457600080fd5b50813567ffffffffffffffff8111156120ac57600080fd5b6020830191508360208260051b85010111156120c757600080fd5b9250929050565b600080600080604085870312156120e457600080fd5b843567ffffffffffffffff808211156120fc57600080fd5b61210888838901612082565b9096509450602087013591508082111561212157600080fd5b5061212e87828801612082565b95989497509550505050565b6000806000806080858703121561215057600080fd5b843561215b81612050565b966020860135965060408601359560600135945092505050565b801515811461068957600080fd5b60006020828403121561219557600080fd5b813561158d81612175565b600080604083850312156121b357600080fd5b82356121be81612050565b946020939093013593505050565b6000602082840312156121de57600080fd5b81356001600160801b038116811461158d57600080fd5b6020808252825182820181905260009190848201906040850190845b818110156122365783516001600160a01b031683529284019291840191600101612211565b50909695505050505050565b634e487b7160e01b600052603260045260246000fd5b634e487b7160e01b600052601160045260246000fd5b60006001820161228057612280612258565b5060010190565b60006020828403121561229957600080fd5b815161158d81612050565b6000602082840312156122b657600080fd5b815161158d81612175565b6000828210156122d3576122d3612258565b500390565b600082198211156122eb576122eb612258565b500190565b60006020828403121561230257600080fd5b5051919050565b600081600019048311821515161561232357612323612258565b500290565b60008261234557634e487b7160e01b600052601260045260246000fd5b500490565b634e487b7160e01b600052604160045260246000fd5b634e487b7160e01b600052603160045260246000fdfea2646970667358221220023e268c5c7627c380725ffc0b0e4864675ea2e11920ad033c84b21948e223cc64736f6c634300080f0033",
    "linkReferences": {}
  },
  "methodIdentifiers": {
    "BASE()": "ec342ad0",
    "acceptPendingGovernor()": "13f6986d",
    "addStrategies(address[],uint256[])": "25fc3b22",
    "addStrategy(address,uint256)": "c9411e22",
    "forceWork(address)": "dd7ba420",
    "forceWorkUnsafe(address)": "f7ac5fc6",
    "gasBonus()": "16ea58da",
    "gasMultiplier()": "ea3c2b9c",
    "governor()": "0c340a24",
    "isMechanic(address)": "65834acc",
    "keep3r()": "634c7bb5",
    "keep3rHelper()": "f11a1d1a",
    "lastWorkAt(address)": "10262803",
    "maxMultiplier()": "0187aea0",
    "mechanicsRegistry()": "1078f388",
    "onlyEOA()": "fb2a410a",
    "paused()": "5c975abb",
    "pendingGovernor()": "e3056a34",
    "removeStrategy(address)": "175188e8",
    "requiredAge()": "6b1b6e3e",
    "requiredAmount(address)": "28584aa7",
    "requiredBond()": "3ff8bbf6",
    "requiredEarnings()": "62ba54a9",
    "requiredMinBond()": "73da47c8",
    "setCreditWindow(uint128)": "e44f6d07",
    "setGasBonus(uint256)": "90f29643",
    "setGasMultiplier(uint256)": "14f29a1d",
    "setKeep3r(address)": "4cc18e57",
    "setKeep3rHelper(address)": "72da828a",
    "setKeep3rRequirements(address,uint256,uint256,uint256)": "5905b407",
    "setMaxMultiplier(uint256)": "01526a43",
    "setMechanicsRegistry(address)": "ef47da6d",
    "setOnlyEOA(bool)": "780b5c23",
    "setPause(bool)": "bedb86fb",
    "setPendingGovernor(address)": "f235757f",
    "setStealthRelayer(address)": "8c9341f1",
    "setSweepingStart(uint128)": "c1cf0723",
    "setV2Keeper(address)": "26e6cd26",
    "setWorkCooldown(uint256)": "74c2ca83",
    "stealthRelayer()": "259428a0",
    "strategies()": "d9f9027f",
    "sweepingParams()": "64594271",
    "updateRequiredAmount(address,uint256)": "b9a52e28",
    "updateRequiredAmounts(address[],uint256[])": "fbea5709",
    "v2Keeper()": "92b3b265",
    "work(address)": "36df7ea5",
    "workCooldown()": "e06a7cb9",
    "workable(address)": "9f471303"
  },
  "id": 34
}